{
  "contractName": "eCoin",
  "abi": [
    {
      "inputs": [
        {
          "internalType": "contract Token",
          "name": "_token",
          "type": "address"
        }
      ],
      "stateMutability": "nonpayable",
      "type": "constructor"
    },
    {
      "anonymous": false,
      "inputs": [
        {
          "indexed": true,
          "internalType": "address",
          "name": "user",
          "type": "address"
        },
        {
          "indexed": false,
          "internalType": "uint256",
          "name": "etherAmount",
          "type": "uint256"
        },
        {
          "indexed": false,
          "internalType": "uint256",
          "name": "timeStart",
          "type": "uint256"
        }
      ],
      "name": "Deposit",
      "type": "event"
    },
    {
      "anonymous": false,
      "inputs": [
        {
          "indexed": true,
          "internalType": "address",
          "name": "user",
          "type": "address"
        },
        {
          "indexed": false,
          "internalType": "uint256",
          "name": "etherAmount",
          "type": "uint256"
        },
        {
          "indexed": false,
          "internalType": "uint256",
          "name": "depositTime",
          "type": "uint256"
        },
        {
          "indexed": false,
          "internalType": "uint256",
          "name": "interest",
          "type": "uint256"
        }
      ],
      "name": "Withdraw",
      "type": "event"
    },
    {
      "inputs": [
        {
          "internalType": "address",
          "name": "",
          "type": "address"
        }
      ],
      "name": "depositStart",
      "outputs": [
        {
          "internalType": "uint256",
          "name": "",
          "type": "uint256"
        }
      ],
      "stateMutability": "view",
      "type": "function",
      "constant": true
    },
    {
      "inputs": [
        {
          "internalType": "address",
          "name": "",
          "type": "address"
        }
      ],
      "name": "etherBalanceOf",
      "outputs": [
        {
          "internalType": "uint256",
          "name": "",
          "type": "uint256"
        }
      ],
      "stateMutability": "view",
      "type": "function",
      "constant": true
    },
    {
      "inputs": [
        {
          "internalType": "address",
          "name": "",
          "type": "address"
        }
      ],
      "name": "isDeposited",
      "outputs": [
        {
          "internalType": "bool",
          "name": "",
          "type": "bool"
        }
      ],
      "stateMutability": "view",
      "type": "function",
      "constant": true
    },
    {
      "inputs": [],
      "name": "deposit",
      "outputs": [],
      "stateMutability": "payable",
      "type": "function",
      "payable": true
    },
    {
      "inputs": [],
      "name": "withdraw",
      "outputs": [],
      "stateMutability": "nonpayable",
      "type": "function"
    }
  ],
  "bytecode": "0x608060405234801561001057600080fd5b506040516109653803806109658339818101604052602081101561003357600080fd5b8101908080519060200190929190505050806000806101000a81548173ffffffffffffffffffffffffffffffffffffffff021916908373ffffffffffffffffffffffffffffffffffffffff160217905550506108d1806100946000396000f3fe60806040526004361061004a5760003560e01c8063179fc99f1461004f5780633ccfd60b146100b457806373732024146100cb578063d0e30db014610132578063ff87930a1461013c575b600080fd5b34801561005b57600080fd5b5061009e6004803603602081101561007257600080fd5b81019080803573ffffffffffffffffffffffffffffffffffffffff1690602001909291905050506101a1565b6040518082815260200191505060405180910390f35b3480156100c057600080fd5b506100c96101b9565b005b3480156100d757600080fd5b5061011a600480360360208110156100ee57600080fd5b81019080803573ffffffffffffffffffffffffffffffffffffffff169060200190929190505050610561565b60405180821515815260200191505060405180910390f35b61013a610581565b005b34801561014857600080fd5b5061018b6004803603602081101561015f57600080fd5b81019080803573ffffffffffffffffffffffffffffffffffffffff169060200190929190505050610861565b6040518082815260200191505060405180910390f35b60016020528060005260406000206000915090505481565b60011515600360003373ffffffffffffffffffffffffffffffffffffffff1673ffffffffffffffffffffffffffffffffffffffff16815260200190815260200160002060009054906101000a900460ff1615151461027f576040517f08c379a000000000000000000000000000000000000000000000000000000000815260040180806020018281038252601a8152602001807f4572726f722c206e6f2070726576696f7573206465706f73697400000000000081525060200191505060405180910390fd5b6000600160003373ffffffffffffffffffffffffffffffffffffffff1673ffffffffffffffffffffffffffffffffffffffff1681526020019081526020016000205490506000600260003373ffffffffffffffffffffffffffffffffffffffff1673ffffffffffffffffffffffffffffffffffffffff16815260200190815260200160002054420390506000662386f26fc10000838161031b57fe5b046301e33731029050600082820290503373ffffffffffffffffffffffffffffffffffffffff166108fc859081150290604051600060405180830381858888f19350505050158015610371573d6000803e3d6000fd5b5060008054906101000a900473ffffffffffffffffffffffffffffffffffffffff1673ffffffffffffffffffffffffffffffffffffffff166340c10f1933836040518363ffffffff1660e01b8152600401808373ffffffffffffffffffffffffffffffffffffffff16815260200182815260200192505050600060405180830381600087803b15801561040357600080fd5b505af1158015610417573d6000803e3d6000fd5b505050506000600260003373ffffffffffffffffffffffffffffffffffffffff1673ffffffffffffffffffffffffffffffffffffffff168152602001908152602001600020819055506000600160003373ffffffffffffffffffffffffffffffffffffffff1673ffffffffffffffffffffffffffffffffffffffff168152602001908152602001600020819055506000600360003373ffffffffffffffffffffffffffffffffffffffff1673ffffffffffffffffffffffffffffffffffffffff16815260200190815260200160002060006101000a81548160ff0219169083151502179055503373ffffffffffffffffffffffffffffffffffffffff167f02f25270a4d87bea75db541cdfe559334a275b4a233520ed6c0a2429667cca9485858460405180848152602001838152602001828152602001935050505060405180910390a250505050565b60036020528060005260406000206000915054906101000a900460ff1681565b60001515600360003373ffffffffffffffffffffffffffffffffffffffff1673ffffffffffffffffffffffffffffffffffffffff16815260200190815260200160002060009054906101000a900460ff16151514610647576040517f08c379a000000000000000000000000000000000000000000000000000000000815260040180806020018281038252601d8152602001807f4572726f722c206465706f73697420616c72656164792061637469766500000081525060200191505060405180910390fd5b662386f26fc100003410156106a7576040517f08c379a000000000000000000000000000000000000000000000000000000000815260040180806020018281038252602281526020018061087a6022913960400191505060405180910390fd5b34600160003373ffffffffffffffffffffffffffffffffffffffff1673ffffffffffffffffffffffffffffffffffffffff1681526020019081526020016000205401600160003373ffffffffffffffffffffffffffffffffffffffff1673ffffffffffffffffffffffffffffffffffffffff1681526020019081526020016000208190555042600260003373ffffffffffffffffffffffffffffffffffffffff1673ffffffffffffffffffffffffffffffffffffffff1681526020019081526020016000205401600260003373ffffffffffffffffffffffffffffffffffffffff1673ffffffffffffffffffffffffffffffffffffffff168152602001908152602001600020819055506001600360003373ffffffffffffffffffffffffffffffffffffffff1673ffffffffffffffffffffffffffffffffffffffff16815260200190815260200160002060006101000a81548160ff0219169083151502179055503373ffffffffffffffffffffffffffffffffffffffff167f90890809c654f11d6e72a28fa60149770a0d11ec6c92319d6ceb2bb0a4ea1a153442604051808381526020018281526020019250505060405180910390a2565b6002602052806000526040600020600091509050548156fe4572726f722c206465706f736974206d757374206265203e3d20302e303120455448a26469706673582212201927f911ce9e39ed69ba4cc9ddae75da1876864c1e1c95d5c6baee2d648b412364736f6c63430007060033",
  "immutableReferences": {},
  "source": "// SPDX-License-Identifier: MIT\r\npragma solidity >=0.6.0 <0.8.0;\r\n\r\nimport \"./Token.sol\";\r\n\r\n// contract eCoin {\r\n//     Token private token;\r\n\r\n//     mapping(address => uint256) public depositStart;\r\n//     mapping(address => uint256) public etherBalanceOf;\r\n//     mapping(address => uint256) public collateralEther;\r\n\r\n//     mapping(address => bool) public isDeposited;\r\n//     mapping(address => bool) public isBorrowed;\r\n\r\n//     event Deposit(address indexed user, uint256 etherAmount, uint256 timeStart);\r\n//     event Withdraw(\r\n//         address indexed user,\r\n//         uint256 etherAmount,\r\n//         uint256 depositTime,\r\n//         uint256 interest\r\n//     );\r\n//     event Borrow(\r\n//         address indexed user,\r\n//         uint256 collateralEtherAmount,\r\n//         uint256 borrowedTokenAmount\r\n//     );\r\n//     event PayOff(address indexed user, uint256 fee);\r\n\r\n//     constructor(Token _token) public {\r\n//         token = _token;\r\n//     }\r\n\r\n//     function deposit() public payable {\r\n//         require(\r\n//             isDeposited[msg.sender] == false,\r\n//             \"Error, deposit already active\"\r\n//         );\r\n//         require(msg.value >= 1e16, \"Error, deposit must be >= 0.01 ETH\");\r\n\r\n//         etherBalanceOf[msg.sender] = etherBalanceOf[msg.sender] + msg.value;\r\n//         depositStart[msg.sender] = depositStart[msg.sender] + block.timestamp;\r\n\r\n//         isDeposited[msg.sender] = true; //activate deposit status\r\n//         emit Deposit(msg.sender, msg.value, block.timestamp);\r\n//     }\r\n\r\n//     function withdraw() public {\r\n//         require(isDeposited[msg.sender] == true, \"Error, no previous deposit\");\r\n//         uint256 userBalance = etherBalanceOf[msg.sender]; //for event\r\n\r\n//         //check user's hodl time\r\n//         uint256 depositTime = block.timestamp - depositStart[msg.sender];\r\n\r\n//         //31668017 - interest(10% APY) per second for min. deposit amount (0.01 ETH), cuz:\r\n//         //1e15(10% of 0.01 ETH) / 31577600 (seconds in 365.25 days)\r\n\r\n//         //(etherBalanceOf[msg.sender] / 1e16) - calc. how much higher interest will be (based on deposit), e.g.:\r\n//         //for min. deposit (0.01 ETH), (etherBalanceOf[msg.sender] / 1e16) = 1 (the same, 31668017/s)\r\n//         //for deposit 0.02 ETH, (etherBalanceOf[msg.sender] / 1e16) = 2 (doubled, (2*31668017)/s)\r\n//         uint256 interestPerSecond = 31668017 *\r\n//             (etherBalanceOf[msg.sender] / 1e16);\r\n//         uint256 interest = interestPerSecond * depositTime;\r\n\r\n//         //send funds to user\r\n//         msg.sender.transfer(etherBalanceOf[msg.sender]); //eth back to user\r\n//         token.mint(msg.sender, interest); //interest to user\r\n\r\n//         //reset depositer data\r\n//         depositStart[msg.sender] = 0;\r\n//         etherBalanceOf[msg.sender] = 0;\r\n//         isDeposited[msg.sender] = false;\r\n\r\n//         emit Withdraw(msg.sender, userBalance, depositTime, interest);\r\n//     }\r\n\r\n//     function borrow() public payable {\r\n//         require(msg.value >= 1e16, \"Error, collateral must be >= 0.01 ETH\");\r\n//         require(isBorrowed[msg.sender] == false, \"Error, loan already taken\");\r\n\r\n//         //this Ether will be locked till user payOff the loan\r\n//         collateralEther[msg.sender] = collateralEther[msg.sender] + msg.value;\r\n\r\n//         //calc tokens amount to mint, 50% of msg.value\r\n//         uint256 tokensToMint = collateralEther[msg.sender] / 2;\r\n\r\n//         //mint&send tokens to user\r\n//         token.mint(msg.sender, tokensToMint);\r\n\r\n//         //activate borrower's loan status\r\n//         isBorrowed[msg.sender] = true;\r\n\r\n//         emit Borrow(msg.sender, collateralEther[msg.sender], tokensToMint);\r\n//     }\r\n\r\n//     function payOff() public {\r\n//         require(isBorrowed[msg.sender] == true, \"Error, loan not active\");\r\n//         require(\r\n//             token.transferFrom(\r\n//                 msg.sender,\r\n//                 address(this),\r\n//                 collateralEther[msg.sender] / 2\r\n//             ),\r\n//             \"Error, can't receive tokens\"\r\n//         ); //must approve eCoin 1st\r\n\r\n//         uint256 fee = collateralEther[msg.sender] / 10; //calc 10% fee\r\n\r\n//         //send user's collateral minus fee\r\n//         msg.sender.transfer(collateralEther[msg.sender] - fee);\r\n\r\n//         //reset borrower's data\r\n//         collateralEther[msg.sender] = 0;\r\n//         isBorrowed[msg.sender] = false;\r\n\r\n//         emit PayOff(msg.sender, fee);\r\n//     }\r\n// }\r\n\r\ncontract eCoin {\r\n    Token private token;\r\n\r\n    mapping(address => uint256) public etherBalanceOf;\r\n    mapping(address => uint256) public depositStart;\r\n    mapping(address => bool) public isDeposited;\r\n\r\n    event Deposit(address indexed user, uint256 etherAmount, uint256 timeStart);\r\n    event Withdraw(\r\n        address indexed user,\r\n        uint256 etherAmount,\r\n        uint256 depositTime,\r\n        uint256 interest\r\n    );\r\n\r\n    constructor(Token _token) public {\r\n        token = _token;\r\n    }\r\n\r\n    function deposit() public payable {\r\n        require(\r\n            isDeposited[msg.sender] == false,\r\n            \"Error, deposit already active\"\r\n        );\r\n        require(msg.value >= 1e16, \"Error, deposit must be >= 0.01 ETH\");\r\n        etherBalanceOf[msg.sender] = etherBalanceOf[msg.sender] + msg.value;\r\n        depositStart[msg.sender] = depositStart[msg.sender] + block.timestamp;\r\n        isDeposited[msg.sender] = true;\r\n        emit Deposit(msg.sender, msg.value, block.timestamp);\r\n    }\r\n\r\n    function withdraw() public {\r\n        require(isDeposited[msg.sender] == true, \"Error, no previous deposit\");\r\n        uint256 userBalance = etherBalanceOf[msg.sender]; // for event\r\n\r\n        // check user's hodl time\r\n        uint256 depositTime = block.timestamp - depositStart[msg.sender];\r\n\r\n        uint256 interestPerSecond = 31668017 * (userBalance / 1e16);\r\n        uint256 interest = interestPerSecond * depositTime;\r\n\r\n        msg.sender.transfer(userBalance);\r\n        token.mint(msg.sender, interest);\r\n\r\n        // reset depositer data\r\n        depositStart[msg.sender] = 0;\r\n        etherBalanceOf[msg.sender] = 0;\r\n        isDeposited[msg.sender] = false;\r\n\r\n        emit Withdraw(msg.sender, userBalance, depositTime, interest);\r\n    }\r\n}\r\n",
  "sourcePath": "/Users/elliotwood/Source/blockchain-bank/src/contracts/eCoin.sol",
  "compiler": {
    "name": "solc",
    "version": "0.7.6+commit.7338295f.Emscripten.clang"
  },
  "schemaVersion": "3.4.3",
  "updatedAt": "2021-11-24T09:01:13.149Z",
  "networkType": "ethereum",
  "devdoc": {
    "kind": "dev",
    "methods": {},
    "version": 1
  },
  "userdoc": {
    "kind": "user",
    "methods": {},
    "version": 1
  }
}